:100000000C945B010C9478010C9478010C947801A9
:100010000C9478010C942B020C9478010C947801C8
:100020000C9478010C9478010C9478010C9478016C
:100030000C9478010C9478010C9478010C9478015C
:100040000C94D6110C9478010C9478010C947801DE
:100050000C94A5100C9463100C9478010C94780106
:100060000C9478010C9478010C9478010C9478012C
:100070000C9478010C9478010C947801526F7720DD
:10008000436F756E743A202533640053636F726555
:100090003A202536640053636F72653A2025366432
:1000A00000200020002000202000202020004E659D
:1000B000787420426C6F636B3A20002000456E74A8
:1000C000657220796F7572206E616D653A004E45DC
:1000D00057204849474853434F52450A00456E74DC
:1000E000657220796F7572206E616D653A004E45BC
:1000F00057204849474853434F52450A0047414D0E
:1001000045204F56455200526F7720436F756E74ED
:100110003A202533640053636F72653A20253664B4
:100120000043535345323031302F37323031205471
:1001300065747269732050726F6A656374206279A6
:1001400020436861726C746F6E2047726F766573BE
:100150000054657472697300204849474853434FFF
:10016000524553200A0025630025630025630025BE
:100170006325632563203A202575002563256325C3
:1001800063203A20257500256325632563203A20E6
:10019000257500256325632563203A2025750025F4
:1001A0006325632563203A20257500160213020F8C
:1001B000020B0207020302FF01FB01F701F30185B5
:1001C0000281027D027902750271026D0269026686
:1001D0000262025E025A02550251024D0249024475
:1001E0000240023C02370233022E02290224021F7F
:1001F000021A026492927D6C92926D809EA0C17CE4
:1002000092924DE4A2A29D182848FF4492926D4616
:100210008A926342FE037C92A27D868A92A2C3E008
:10022000100E10E1C6281028C7FC021C02FDF804BD
:100230000204F9FC0202FD8080FE80816492924DEE
:10024000FE9098677C828A7C03FE9090617C82821B
:100250007DFE2010FFFE403040FFFE020203FE1034
:1002600028C7040202FD82FE83FE1010FF7C8292EA
:100270005DFE909081FE929283FE82827D7C8282DE
:1002800045FE92926D7E90907F1B5B421B5B44000B
:100290001B5B3F32356C001B5B25646D001B5B32C2
:1002A0004A001B5B376D001B5B306D001B5B2564D8
:1002B0003B256448000011241FBECFEFD8E0DEBF0D
:1002C000CDBF11E0A0E0B1E0ECEEF3E302C0059099
:1002D0000D92A038B107D9F723E0A0E8B1E001C042
:1002E0001D92A939B207E1F70E94A50E0C94F419EA
:1002F0000C940000CF93DF93EC010E94561625E08A
:1003000030E040E050E00E94DF138BE06802F00133
:100310001124E05CFE4F43815481208181819281D0
:1003200068835A8349832B831C821D821E829F838C
:100330008887CE01DF91CF910895FC012085478108
:100340003581822F90E0830F911D09974CF5348100
:10035000842F90E0830F911D419724F5868190E0D2
:10036000019683709078992324F401978C6F9F6F86
:100370000196DC01BB279081AA0FBB1F3BE09302D3
:10038000A00DB11D1124A05CBE4F13966D917C9100
:1003900014977283618386832783408781E0089561
:1003A00080E0089580E00895FC019581278130E088
:1003B000290F311D2830310524F49F5F958381E09A
:1003C000089580E00895FC019581992321F09150D2
:1003D000958381E0089580E00895E8E6F0E080816B
:1003E00082608083D99AECE6F0E080818F60808320
:1003F00010928001089510928001089580918001EB
:1004000018163CF5809181016FB7F89490918001A6
:100410009230B4F021E030E091E0F901EF57FE4F67
:100420004081F901E058FE4F40839F5F292F30E063
:1004300040918001042E000C550B241735076CF3F6
:100440009091800191509093800166231CF47894E0
:1004500008958FEF08951F920F920FB60F921124F7
:100460002F933F934F935F936F937F938F939F93BC
:10047000EF93FF9343B14F7080918001883064F512
:1004800080E090E0642F70E09B01082E02C035955B
:1004900027950A94E2F720FF1BC02091890130E0E4
:1004A000082E02C0359527950A94E2F720FD10C06A
:1004B000E091800121E02E0F209380010E2E000C90
:1004C000FF0BEF57FE4F808320918001283024F4EA
:1004D000019684309105C1F640938901FF91EF9117
:1004E0009F918F917F916F915F914F913F912F914C
:1004F0000F900FBE0F901F901895EF92FF920F93E1
:100500001F93CF93DF93CDB7DEB729970FB6F8943B
:10051000DEBF0FBECDBF09831A832B833C834D837F
:100520005E836F8378878987EA80FB80982F882392
:1005300071F1052FF701208130E002C0220F331F37
:100540005A95E2F7E42FF0E0EB5CFD4F80818223C7
:1005500001F5F7013196A42FB0E0AA5CBD4F915090
:10056000692F70E06F5F7F4F6E0D7F1D0CC0919102
:100570004D91292F30E0002E02C0220F331F0A9424
:10058000E2F7242341F4E617F70789F705C080E076
:1005900003C081E001C081E029960FB6F894DEBF68
:1005A0000FBECDBFDF91CF911F910F91FF90EF90C4
:1005B0000895FF920F931F93CF93DF93D0914D0235
:1005C000DD2399F1E5E4F2E014814781858157E06C
:1005D000581BA181B281C0E0F12C00E06C2F610FAB
:1005E0004423F9F02F2D302F70E0660F771F660F30
:1005F000771F660F771F8C9190E0022E02C09595B1
:1006000087950A94E2F780FF08C0852F821BFB01C3
:10061000E80FF11DEF54FE4F10822F5F3F4F24175C
:1006200050F3CF5F1196CD17C8F2DF91CF911F9194
:100630000F91FF900895EF92FF920F931F93CF9326
:10064000DF9310914D021123A1F1E5E4F2E0048162
:100650004781858157E0581BC381A181B281D0E0D9
:10066000E12CF12C6D2F600F4423F9F02E2D3F2D3E
:1006700070E0660F771F660F771F660F771F8C91EC
:1006800090E0022E02C0959587950A94E2F780FFCC
:1006900008C0852F821BFB01E80FF11DEF54FE4FB0
:1006A000C0832F5F3F4F241750F3DF5F1196D117A0
:1006B000C8F2DF91CF911F910F91FF90EF900895B5
:1006C00080918A01811104C081E080938A0108959C
:1006D000813011F410928A010895811109C08BEBC9
:1006E00090E09F938F930E94AD160F900F90089506
:1006F0008F3061F48FE10E945A110E94481180E20C
:1007000090E00E94D3160E943F110895803F61F44B
:1007100080E20E945A110E94481180E290E00E94FB
:10072000D3160E943F1108958F3F61F481E20E9429
:100730005A110E94481180E290E00E94D3160E9454
:100740003F1108958C3361F482E20E945A110E9495
:10075000481180E290E00E94D3160E943F11089554
:10076000853159F484E20E945A110E94481180E2B6
:1007700090E00E94D3160E943F1108950F931F939B
:10078000CF93DF938B0168E0680F88E20E94261107
:10079000E801085F1F4F89910E946D03C017D107C0
:1007A000D1F785E20E945A11DF91CF911F910F91ED
:1007B00008950F931F93CF93DF93182F0FEF060F1A
:1007C000080F0817C8F0C12FD0E0CC0FDD1FCC0FE9
:1007D000DD1FCC0FDD1FCF54DE4FBE01812F0E94E5
:1007E000920780918A01811104C0BE01812F0E946D
:1007F000BE031F5F011738F7DF91CF911F910F9153
:1008000008950F931F93CF93DF93CDB7DEB729974A
:100810000FB6F894DEBF0FBECDBF99E0E5E4F2E07D
:10082000DE01119601900D929A95E1F7811107C0B2
:10083000CE0101960E94D401811107C028C0CE01CB
:1008400001960E94E301882321F109811A812B81FD
:100850003C814D815E816F81788589850E947D0212
:10086000811119C00E94D90289E0FE013196A5E4E8
:10087000B2E001900D928A95E1F70E941B03E5E436
:10088000F2E0608584810E94D90381E005C080E0A8
:1008900003C080E001C080E029960FB6F894DEBF67
:1008A0000FBECDBFDF91CF911F910F91089584E6C8
:1008B00090E0A0E0B0E08093310290933202A093E8
:1008C0003302B09334020895809131029091320244
:1008D000A0913302B09134020A96A11DB11D8093FC
:1008E000310290933202A0933302B0933402089500
:1008F0006091310270913202809133029091340202
:100900000E942A13089510928B01089580918B0103
:10091000833618F48F5F80938B01089580918B014B
:10092000089593E08BB180588BB9EFE6F7E13197EA
:10093000F1F700C000008BB180588BB9EFE6F7E10A
:100940003197F1F700C00000915061F708959AE0E7
:100950008BB180588BB9E7EEF3E03197F1F700C027
:1009600000008BB180588BB9E7EEF3E03197F1F7D7
:1009700000C00000915061F78FE097E20197F1F716
:1009800000C0000008959AE08BB180588BB9EFEC5D
:10099000F7E03197F1F700C000008BB180588BB9B8
:1009A000EFECF7E03197F1F700C00000915061F7EC
:1009B000089594E18BB180588BB9EFEDFEE2319749
:1009C000F1F700C000008BB180588BB9EFEDFEE26B
:1009D0003197F1F700C00000915061F70895FF9240
:1009E0000F931F93CF93DF93CDB7DEB729970FB641
:1009F000F894DEBF0FBECDBFE5E4F2E04481808510
:100A000090E0840F911D40978CF589E0DE011196EE
:100A100001900D928A95E1F7FF24F394F40E098179
:100A20001A812B813C814F2D5E816F81788589856C
:100A30000E947D0281111CC00E94D902FD8289E0C2
:100A4000FE013196A5E4B2E001900D928A95E1F79E
:100A50000E941B03E5E4F2E060856F5F84818150B2
:100A60000E94D9030E94910481E003C080E001C08C
:100A700080E029960FB6F894DEBF0FBECDBFDF91A0
:100A8000CF911F910F91FF9008950F931F93CF93D4
:100A9000DF93CDB7DEB729970FB6F894DEBF0FBE50
:100AA000CDBF89E0E5E4F2E0DE01119601900D9200
:100AB0008A95E1F7CE0101960E949D01882339F1C4
:100AC00009811A812B813C814D815E816F817885FE
:100AD00089850E947D0281111CC0898510914D027B
:100AE000181708F4182F0E94D90289E0FE013196E8
:100AF000A5E4B2E001900D928A95E1F70E941B03F4
:100B0000612F809149020E94D90381E003C080E0F7
:100B100001C080E029960FB6F894DEBF0FBECDBFAE
:100B2000DF91CF911F910F9108958F929F92AF9275
:100B3000BF92CF92DF92EF92FF920F931F93CF93CA
:100B40006AE089E10E9426118EEA90E09F938F93DC
:100B50000E94AD160F900F90CBE00AEA10E06C2FC8
:100B60008EE10E9426111F930F930E94AD16CF5F56
:100B70000F900F90CE3099F78091B001882309F43F
:100B800071C0C0E008EA11E00F2EF1EA8F2EF0E00C
:100B90009F2EF02D0F2EF5EAAF2EF0E0BF2EF02D98
:100BA0000F2EF3EACF2EF0E0DF2EF02D0F2EF7EA16
:100BB000EF2EF0E0FF2EF02D6BE06C0F8EE10E9427
:100BC0002611D8011196ED91FC911297EC0FF11DB1
:100BD0008081813059F4FF92EF920E94AD16F801A6
:100BE00083810E946D030F900F9035C0823091F485
:100BF000BF92AF920E94AD16D80113968C910E94BD
:100C00006D03DF92CF920E94AD160F900F900F9060
:100C10000F9021C0833081F49F928F920E94AD1675
:100C2000F80183810E946D03D80113968C910E9474
:100C30006D030F900F900FC0873069F4F801838126
:100C40000E946D03D80113968C910E946D03F801E8
:100C500083810E946D03CF5FD80118968C91C817CD
:100C600008F4AACF85E20E945A11CF911F910F91EB
:100C7000FF90EF90DF90CF90BF90AF909F908F90BC
:100C800008950F931F93CF93DF93CDB7DEB72997C6
:100C90000FB6F894DEBF0FBECDBF89E0E8EAF1E001
:100CA000A5E4B2E001900D928A95E1F7CE0101969C
:100CB0000E947A0189E0FE013196A8EAB1E0019034
:100CC0000D928A95E1F70E949505009145021091D9
:100CD00046022091470230914802409149025091CA
:100CE0004A0260914B0270914C0280914D020E9429
:100CF0007D0281110AC00E941B03E5E4F2E06085D9
:100D000084810E94D90381E001C080E029960FB65A
:100D1000F894DEBF0FBECDBFDF91CF911F910F9131
:100D20000895CF93DF93CDB7DEB729970FB6F89428
:100D3000DEBF0FBECDBF0E94B407A5E3B2E021EB3A
:100D400031E041E352E090E01D92F901892F1192C8
:100D50008F5F8830E1F7285F3F4F24173507A1F7F1
:100D6000CE0101960E947A0189E0FE013196A8EA3F
:100D7000B1E001900D928A95E1F70E944106299613
:100D80000FB6F894DEBF0FBECDBFDF91CF910895AF
:100D9000AF92BF92CF92EF92FF921F93CF93DF93C8
:100DA0000E94C3040E94A70481E090E00E94BB0E51
:100DB00030914D02332309F46EC0E5E4F2E0648122
:100DC0004581A181B28120E0E22FE60FF0E08D9114
:100DD000EB5CFD4F90E0042E02C0880F991F0A942F
:100DE000E2F79081892B80832F5F231768F353C02C
:100DF00088818F3F99F584E690E00E94BB0E0E94A7
:100E000064040E9486040E9491040E94C3040E940C
:100E1000A7041882123008F451C0212F822F90E0CD
:100E2000FC013197DF01AB5CBD4F3C91DC01AB5C59
:100E3000BD4F3C93EE0FFF1FEE0FFF1FEE0FFF1F86
:100E4000DF01AF54BE4FE754FE4F8C2D9D9191931F
:100E50008150E1F72150213009F730C01F5F219602
:100E6000103131F664E088E20E9426110E94D00E13
:100E70009F938F937F936F9386E990E09F938F93D7
:100E80000E94AD160E9441060F900F900F900F9098
:100E90000F900F903AC0C5E3D2E010E00F2EFBE8B0
:100EA000EF2EF0E0FF2EF02D0F2EFCE7AF2EF0E03E
:100EB000BF2EF02D6894CC24C3F89ACF64E088E26A
:100EC0000E9426110E94D00E9F938F937F936F9361
:100ED000FF92EF920E94AD1665E088E20E94261113
:100EE00080918B011F928F93BF92AF920E94AD169B
:100EF00060E180E00E94D9038DB79EB70A960FB6D5
:100F0000F8949EBF0FBE8DBFA9CFDF91CF911F91E7
:100F1000FF90EF90CF90BF90AF90089580E80E942F
:100F2000F81008950F931F93CF93DF93C82F8B0171
:100F300083E00E9420118C2F8F700E942011E80105
:100F4000085F1F4F89910E942011C017D107D1F768
:100F5000DF91CF911F910F91089584E00E9420119D
:100F600082E00E94201108958FE00E9420110895D0
:100F7000FB0140815181FC0120813181CA01821B2A
:100F8000930B0895CF92DF92EF92FF921F93CF932E
:100F9000DF93C0919401D09195018091920190913D
:100FA0009301C817D90728F08C179D0720F011E08E
:100FB00004C011E002C0EC0112E080919001909118
:100FC0009101C817D90710F0EC0113E080918E0150
:100FD00090918F01C817D90710F0EC0114E08091AF
:100FE0008C0190918D01C817D90710F0EC0115E024
:100FF0000E94D00E6E01E12CF12CC616D706E80631
:10100000F90610F4812F01C080E0DF91CF911F918C
:10101000FF90EF90DF90CF9008952F923F924F92E4
:101020005F926F927F928F929F92AF92BF92CF9278
:10103000DF92EF92FF920F931F93CF93DF93CDB781
:10104000DEB72A970FB6F894DEBF0FBECDBF9091E2
:101050006D02992309F42DC1282E8091940190915D
:1010600095019A83898380919201909193019C8349
:101070008B8380919001909191019E838D838091CB
:101080008E0190918F0198878F8380918C01909130
:101090008D019A878987622D70E028EB37E042E066
:1010A00050E0CE0101960E946114222009F401C192
:1010B0008E010F5F1F4F87E0280E0F2EF7E03F2EA7
:1010C000F02D0F2EFEE56F2EF2E07F2EF02D0F2E6D
:1010D000F2E5AF2EF2E0BF2EF02D0F2EF3E6CF2E6D
:1010E000F2E0DF2EF02D0F2EF3E94F2EF1E05F2E10
:1010F000F02D0F2EFEE6EF2EF2E0FF2EF02D0F2E3C
:10110000FFE98F2EF1E09F2EF02DD8018D919D915A
:101110008D01209194013091950182179307F1F48C
:10112000632D83E00E942611809195018F93809119
:1011300094018F93F70182811F928F9381811F9277
:101140008F9380811F928F939F928F920E94AD16F2
:101150000FB6F894DEBF0FBECDBFA8C0209192019C
:10116000309193018217930711F5632D83E00E945C
:101170002611809193018F93809192018F93D601D4
:1011800012968C9112971F928F9311968C911197B2
:101190001F928F938C911F928F935F924F920E9418
:1011A000AD160FB6F894DEBF0FBECDBF7FC0209145
:1011B0009001309191018217930721F5632D83E00F
:1011C0000E942611809191018F93809190018F93BD
:1011D000D50112968C9112971F928F9311968C9134
:1011E00011971F928F938C911F928F93A7E8B1E074
:1011F000BF93AF930E94AD160FB6F894DEBF0FBE3B
:10120000CDBF54C020918E0130918F01821793077A
:1012100021F5632D83E00E94261180918F018F9329
:1012200080918E018F93D30112968C9112971F9209
:101230008F9311968C9111971F928F938C911F927F
:101240008F93ABE7B1E0BF93AF930E94AD160FB69B
:10125000F894DEBF0FBECDBF29C020918C01309124
:101260008D018217930711F5632D83E00E942611EB
:1012700080918D018F9380918C018F9380917B025F
:101280001F928F9380917A021F928F93A9E7B2E009
:101290008C911F928F93AFE6B1E0BF93AF930E9402
:1012A000AD160FB6F894DEBF0FBECDBF339432102B
:1012B0002CCF2A960FB6F894DEBF0FBECDBFDF91BC
:1012C000CF911F910F91FF90EF90DF90CF90BF9043
:1012D000AF909F908F907F906F905F904F903F90D6
:1012E0002F900895AF92BF92CF92DF92EF92FF922C
:1012F0000F931F93CF93DF938FEF80935B028093C5
:10130000550280934E020F2EF3E9EF2EF3E0FF2EED
:10131000F02D0F2EF9E6AF2EF1E0BF2EF02D0F2E9F
:10132000FCE6CF2EF1E0DF2EF02D0E94571088232F
:1013300009F442C0F701808191810E946F16EC018F
:101340008C011127C8010E946716892BA9F1809191
:101350005B028F3F69F4C0935B021F930F93DF9290
:10136000CF920E94AD160F900F900F900F9024C057
:10137000809155028F3F69F4C09355021F930F93DC
:10138000BF92AF920E94AD160F900F900F900F90EA
:1013900013C080914E028F3F79F4C0934E021F928A
:1013A000CF9386E691E09F938F930E94AD160F90A6
:1013B0000F900F900F9007C0EFE1FEE43197F1F727
:1013C00000C00000B2CFDF91CF911F910F91FF902D
:1013D000EF90DF90CF90BF90AF9008950E948E075E
:1013E0000E94ED018AE190E00E945B19833851F080
:1013F00063E88AE190E00E94691960E089E190E089
:101400000E94691940E060E07BE480E090E00E9487
:10141000101080E480937C0084E880937A000E941E
:10142000AE118FEF87B981EC8AB9789408958091D5
:101430006602811104C080E480937C0003C081E4D3
:1014400080937C00EAE7F0E0808180648083808183
:1014500080FDFDCF8091660281110CC080917800E3
:1014600090917900909326018093250181E08093EB
:1014700066020895809178009091790090932401FC
:10148000809323011092660208950F931F93809119
:101490002501909126018335934008F10E94C811DF
:1014A00000911F0110912001209121013091220112
:1014B0000617170728073907A0F40E94C811DC0196
:1014C000CB0180589F4FAF4FBF4F80931F01909328
:1014D0002001A0932101B093220181E003C080E0AC
:1014E00001C080E01F910F9108950F931F93809189
:1014F0002501909126018639910508F50E94C811B1
:1015000000911F01109120012091210130912201B1
:101510000617170728073907A0F40E94C811DC0135
:10152000CB0180589F4FAF4FBF4F80931F019093C7
:101530002001A0932101B093220181E003C080E04B
:1015400001C080E01F910F9108950F931F93809128
:101550002301909124018335934000F10E94C8112A
:1015600000911F0110912001209121013091220151
:10157000061717072807390798F40E94C811DC01DD
:10158000CB019F5FAF4FBF4F80931F01909320010E
:10159000A0932101B093220181E003C080E001C04B
:1015A00080E01F910F9108950F931F938091230165
:1015B000909124018639910508F50E94C811009187
:1015C0001F01109120012091210130912201061765
:1015D000170728073907A0F40E94C811DC01CB01C6
:1015E00080589F4FAF4FBF4F80931F0190932001B2
:1015F000A0932101B093220181E003C080E001C0EB
:1016000080E01F910F9108950F931F93CF93DF9365
:1016100089E190E00E945B19C82F80936D028823B6
:1016200009F463C066E080E00E94261188E591E03D
:101630009F938F930E94AD1680E090E00E945B190B
:10164000CEE6D2E0888381E090E00E945B19898336
:1016500082E090E00E945B198A8383E090E00E9420
:1016600063199093950180939401C0916D020F903E
:101670000F90C230E0F085E090E00E945B1903E635
:1016800012E0F801808386E090E00E945B19F80187
:10169000818387E090E00E945B19F801828388E0F3
:1016A00090E00E9463199093930180939201C3305C
:1016B000E0F08AE090E00E945B1902E512E0F80198
:1016C00080838BE090E00E945B19F80181838CE0BD
:1016D00090E00E945B19F80182838DE090E00E9407
:1016E00063199093910180939001C430E0F08FE0F2
:1016F00090E00E945B190EE512E0F801808380E122
:1017000090E00E945B19F801818381E190E00E94E2
:101710005B19F801828382E190E00E946319909343
:101720008F0180938E01C530C8F084E190E00E9463
:101730005B19C9E7D2E0888385E190E00E945B19DC
:10174000898386E190E00E945B198A8387E190E0BB
:101750000E94631990938D0180938C01DF91CF914A
:101760001F910F910895FF920F931F93CF93DF93D3
:101770000E94830480E00E945A110E9451110E942D
:10178000671163E083E00E94261181E591E09F9359
:101790008F930E94AD1665E083E00E94261180E2DF
:1017A0000E945A1181E291E09F938F930E94AD169F
:1017B00085E20E945A110E94B4070F900F900F907B
:1017C0000F90CFE00F2EFFE0FF2EF02D0FEF10EF68
:1017D000D5E16C2F87E791E00E94D90E0DC02FE76D
:1017E0008CE293E0215080409040E1F700C000007F
:1017F0000E94FE018F3FA9F50E94E80E8111EFCFF4
:101800000E945616DC01CB0183709927AA27B07875
:10181000BB2354F40197A109B1098C6F9F6FAF6F7F
:10182000BF6F0196A11DB11D81309105A105B105C4
:1018300091F02CF4892B8A2B8B2B59F0CACF823054
:101840009105A105B10549F00397A105B10539F04E
:10185000C0CFCD2FBECFCF2DBCCFC02FBACFC12F81
:10186000B8CFDF91CF911F910F91FF9008950E9403
:1018700051110E9491060E94830440E367E287E0D1
:101880000E94701140E367E288E10E94701148E114
:1018900067E087E20E94881148E167E080E30E94E8
:1018A000881164E088E20E9426110E94D00E9F9366
:1018B0008F937F936F9386E191E09F938F930E9424
:1018C000AD1665E088E20E9426110E948E041F92E8
:1018D0008F9387E091E09F938F930E94AD160E94B3
:1018E000B20E0E94FB010E945E100E94570489E123
:1018F00090E00E945B1980936D020E94040B80911E
:101900006D020E940D088DB79EB70A960FB6F89427
:101910009EBF0FBE8DBF08952F923F924F925F9250
:101920006F927F928F929F92AF92BF92CF92DF92EF
:10193000EF92FF920F931F93CF93DF9300D000D0CD
:1019400000D0CDB7DEB70E94C81169837A838B833C
:101950009C831E821D820F2EF3E92F2EF3E03F2E73
:10196000F02D0E94FE01182F8F3F09F0DDC00E946C
:101970005710882309F4CBC0F101808191810E9426
:101980006F16082FFE81F11103C08B3169F4C1C0BD
:101990008E81813019F40B3539F4BFC09E819230AD
:1019A00009F4AFC01E82BCC0ED81EE2341F01E825F
:1019B000C7C0133091F0DD24DA940FEF09C0DD24A5
:1019C000DA9402C0D02E0FEFF4E4DF1641F01E824D
:1019D0000E94450A882341F003C00FEF01C01E8218
:1019E00080E00E94010445C0112339F083E4D81639
:1019F00021F00E94750A882321F081E00E940104F1
:101A000038C0123039F091E4D91621F00E94A50AAD
:101A1000882319F00E9445052CC0113011F00032C6
:101A2000C1F40E9460030E94EF048111FCCF0E9468
:101A3000600360E180E00E94D9030E94C806882309
:101A400009F483C00E94C81169837A838B839C83C5
:101A500010C0E2E4DE1621F00E94D40A882349F087
:101A60000E94EF04811105C00E94C806882309F472
:101A70006CC0802F8F7D803521F4FD8181E0F827B7
:101A8000FD839D8191113AC00E94C8116B017C01B8
:101A90000E9478042B013C01C701B6010E94281363
:101AA0006B017C0169817A818B819C810E94281362
:101AB0004B015C01A301920160E070E68AE697E4C5
:101AC0000E94B6129B01AC01C501B4010E944A12EA
:101AD0009B01AC01C701B6010E94B613882374F0C4
:101AE0000E94EF04811104C00E94C806882369F196
:101AF0000E94C81169837A838B839C830E94170A92
:101B000030CFED81EE2309F45DCF1E82BACF0FEF07
:101B100007C0F1E0FE830FEF03C082E08E830FEF7A
:101B20009D81992331F00CC0ED81EE2309F441CF62
:101B3000E5CF0E94450A811153CFDD24DA9459CFB5
:101B4000802F8F7D8035D1F698CF26960FB6F894EA
:101B5000DEBF0FBECDBFDF91CF911F910F91FF90E0
:101B6000EF90DF90CF90BF90AF909F908F907F903D
:101B70006F905F904F903F902F9008950F931F9319
:101B8000CF93DF9300D0CDB7DEB78C010E94D00E8B
:101B90007A83698360915B02C8010E946919609130
:101BA0005502C80101960E94691960914E02C80150
:101BB00002960E9469196981C80103960E946919F9
:101BC0006A81C80104960E9469190F900F90DF91F5
:101BD000CF911F910F910895CF9362E082E00E9410
:101BE00026118DEF90E09F938F930E94AD160E9477
:101BF00091040E9491040E94D9040F900F9080914B
:101C00006D02853008F04BC063E082E00E9426112F
:101C100081E20E945A118EEE90E09F938F930E9472
:101C2000AD1685E20E945A118DED90E09F938F933F
:101C30000E94AD16C0916D02CF5F0E9472090F9095
:101C40000F900F900F90CC2311F1C13029F480E058
:101C500090E00E94BE0D1BC0C23029F485E090E0E8
:101C60000E94BE0D14C0C33029F48AE090E00E94A7
:101C7000BE0D0DC0C43029F48FE090E00E94BE0D6F
:101C800006C0C53021F484E190E00E94BE0D609151
:101C90006D026F5F89E190E00E94691943C00E9464
:101CA000C207C82F8823F1F163E082E00E94261169
:101CB00081E20E945A118EEC90E09F938F930E94D4
:101CC000AD1685E20E945A118DEB90E09F938F93A1
:101CD0000E94AD160E9472090F900F900F900F9006
:101CE000C13029F480E090E00E94BE0D1BC0C230DC
:101CF00029F485E090E00E94BE0D14C0C33029F4A1
:101D00008AE090E00E94BE0D0DC0C43029F48FE03F
:101D100090E00E94BE0D06C0C53021F484E190E041
:101D20000E94BE0D0E94040B80916D020E940D085E
:101D300006C08FEC97E00197F1F700C000000E9409
:101D4000FE018F3FB1F3CF9108950E94EE090E94EA
:101D500083040E94B30B0E94370C0E948C0C0E94DB
:101D6000EC0DF9CF10929601109297011092980104
:101D700010929901089540919601509197016091B8
:101D8000980170919901480F591F611D711D409371
:101D9000960150939701609398017093990108956B
:101DA00060919601709197018091980190919901AD
:101DB00008956093270190939E0180939D01109256
:101DC000A00110929F0110929C0110929B01089516
:101DD0000F931F93CF93DF93CDB7DEB728970FB63E
:101DE000F894DEBF0FBECDBFE0919F01F091A0013E
:101DF000309781F0149110FF06C01092A00110924C
:101E00009F0100E06BC03196F093A001E0939F0129
:101E100000E064C0E0919B01F0919C01309709F4CF
:101E200049C0CF01019690939C0180939B01E08172
:101E3000E1110AC010929C0110929B0180E18093F5
:101E40009A0100E010E04AC08FE98E0F8A3170F4E9
:101E5000F0E0EE0FFF1FE350FF4F859194919093B8
:101E6000A00180939F0100E010E038C08FEB8E0F3F
:101E70008A3170F4F0E0EE0FFF1FE35CFE4F8591B6
:101E800094919093A00180939F0100E010E026C000
:101E900080ED8E0F8A3000F5F0E0EE0FFF1FE55B5E
:101EA000FE4F859194919093A00180939F0100E053
:101EB00010E014C080919D0190919E0101E0009777
:101EC00009F000E090939C0180939B0110929E0189
:101ED00010929D0110E002C000E010E00E94AD07EA
:101EE00020912701FE013896CE010196112314F4AA
:101EF000208301C01082110F3197E817F907B1F75D
:101F00001982BE016F5F7F4F8FE00E949207809120
:101F10009A01882389F0815080939A01002311F05F
:101F2000882311F090E003C091E001C091E081E0CE
:101F3000992329F080E003C00111F8CFF3CF289650
:101F40000FB6F894DEBF0FBECDBFDF91CF911F91CA
:101F50000F910895CF93C82F8A3019F48DE00E9415
:101F6000AA0F2FB7207802C0222329F19091800276
:101F70009F3FD1F3F894E0917F0281E08E0F809330
:101F80007F02F0E0EF57FD4FC083809180028F5FAA
:101F90008093800280917F028F3F11F410927F0224
:101FA000E1ECF0E0808180628083222339F0789434
:101FB00080E090E005C081E090E002C080E090E029
:101FC000CF910895809192038823E1F32FB7207871
:101FD000F894809180033091920390E0831B9109E3
:101FE0005AF4E091800380919203F0E0E81BF1093C
:101FF000EF56FC4F80810AC0E091800380919203EC
:10200000F0E0E81BF109EF57FC4F808190919203BB
:10201000915090939203222309F0789490E00895D0
:1020200010927F021092800210928003109292030D
:10203000109291034093A101DC01CB01880F991FFD
:10204000AA1FBB1F880F991FAA1FBB1F9C01AD01B0
:10205000220F331F441F551F60E072E18AE790E0B2
:102060000E94DF13BA01A9014F5F5F4F6F4F7F4F8F
:10207000DB01CA011AF40196A11DB11DB595A79502
:102080009795879501979093C5008093C400E1ECE4
:10209000F0E088E18083808180688083E3E9F3E079
:1020A00088E291E093838283918380830895909165
:1020B000920381E0911101C080E0089510928003A5
:1020C0001092920308951F920F920FB60F9211244F
:1020D0002F938F939F93EF93FF9380918002882398
:1020E00029F180917F022091800290E0821B91096A
:1020F0005AF4E0917F0280918002F0E0E81BF10940
:10210000E058FC4F90810AC0E0917F0280918002EC
:10211000F0E0E81BF109EF57FD4F908180918002BC
:102120008150809380029093C60005C0E1ECF0E0FE
:1021300080818F7D8083FF91EF919F918F912F916F
:102140000F900FBE0F901F9018951F920F920FB611
:102150000F9211242F933F934F935F936F937F932D
:102160008F939F93AF93BF93CF93EF93FF93C091C0
:10217000C6008091A101882349F0809180028F3FA1
:1021800029F060E070E08C2F0E94AA0F80919203EA
:10219000803120F081E08093910318C0CD3009F4A4
:1021A000CAE0E091800381E08E0F80938003F0E02D
:1021B000EF57FC4FC083809192038F5F809392030F
:1021C00080918003803111F410928003FF91EF9190
:1021D000CF91BF91AF919F918F917F916F915F91BF
:1021E0004F913F912F910F900FBE0F901F90189518
:1021F00094B1906B94B92C9A90E59CBD883021F0F5
:10220000803211F0823019F491E09DBD01C01DBCF7
:10221000803269F028F4883071F0803161F00EC0AE
:10222000803429F0803851F48CB581608CBD8CB538
:1022300082608CBD03C08CB581608CBD2C980895E4
:102240008EBD0DB407FEFDCF8EB50895282F082E44
:10225000000C330B3F938F93862F062E000C990BA7
:102260009F936F938CEA92E09F938F930E94AD1699
:102270000F900F900F900F900F900F90089587EA96
:1022800092E09F938F930E94AD160F900F90089548
:1022900082EA92E09F938F930E94AD160F900F9069
:1022A00008958DE992E09F938F930E94AD160F9051
:1022B0000F9008951F928F9387E992E09F938F93D9
:1022C0000E94AD160F900F900F900F90089580E927
:1022D00092E09F938F930E94AD160F900F900895F8
:1022E000CF93DF93C62FD42F682F8C2F0E942611F7
:1022F0000E944811DC173CF080E290E00E94D31667
:10230000CF5FDC17CCF70E943F11DF91CF9108958A
:102310000F931F93CF93DF93C62FD42F0E942611C4
:102320000E944811CD177CF409E812E080E290E0A9
:102330000E94D3161F930F930E94AD16CF5F0F908C
:102340000F90CD179CF380E290E00E94D3160E947C
:102350003F11DF91CF911F910F9108951092A40129
:102360001092A5011092A6011092A7011092A3014C
:1023700016BC8CE787BD82E084BD83E085BDEEE6B8
:10238000F0E080818260808385B3827085BB089590
:102390002FB7F8946091A4017091A5018091A601D6
:1023A0009091A70122230CF4789408951F920F9224
:1023B0000FB60F9211242F933F934F935F936F9318
:1023C0007F938F939F93AF93BF93EF93FF938091EE
:1023D000A4019091A501A091A601B091A701019639
:1023E000A11DB11D8093A4019093A501A093A60106
:1023F000B093A701F8949091A30181E0892780937D
:10240000A3010E948E048093A2019091A3019111D7
:1024100015C09DEC899F912D1124969596959695C2
:10242000990F292F220F220F920F891BE82FF0E01E
:10243000EA5CFE4F808188B95E9819C09DEC899F47
:10244000E12D1124E695E695E695E99F812D11246D
:10245000869586958695880F982F990F990F890FE5
:10246000E81BF0E0EA5CFE4F808188B95E9A7894C0
:10247000FF91EF91BF91AF919F918F917F916F915C
:102480005F914F913F912F910F900FBE0F901F9032
:1024900018955058BB27AA270E9461120C947C13F0
:1024A0000E946E1338F00E94751320F039F49F3F9C
:1024B00019F426F40C946B130EF4E095E7FB0C94DE
:1024C0006513E92F0E948D1358F3BA17620773073B
:1024D0008407950720F079F4A6F50C94AF130EF459
:1024E000E0950B2EBA2FA02D0B01B90190010C0124
:1024F000CA01A0011124FF27591B99F0593F50F43C
:10250000503E68F11A16F040A22F232F342F442793
:10251000585FF3CF469537952795A795F04053958B
:10252000C9F77EF41F16BA0B620B730B840BBAF05B
:102530009150A1F0FF0FBB1F661F771F881FC2F7C6
:102540000EC0BA0F621F731F841F48F487957795DA
:102550006795B795F7959E3F08F0B0CF9395880F94
:1025600008F09927EE0F9795879508950E94CA1253
:102570000C947C130E94751358F00E946E1340F067
:1025800029F45F3F29F00C94651351110C94B0139A
:102590000C946B130E948D1368F39923B1F35523A8
:1025A00091F3951B550BBB27AA2762177307840766
:1025B00038F09F5F5F4F220F331F441FAA1FA9F3FC
:1025C00035D00E2E3AF0E0E832D091505040E695EA
:1025D000001CCAF72BD0FE2F29D0660F771F881F4B
:1025E000BB1F261737074807AB07B0E809F0BB0B3E
:1025F000802DBF01FF2793585F4F3AF09E3F510552
:1026000078F00C9465130C94B0135F3FE4F3983E9C
:10261000D4F3869577956795B795F7959F5FC9F73A
:10262000880F911D9695879597F90895E1E0660FBB
:10263000771F881FBB1F621773078407BA0720F034
:10264000621B730B840BBA0BEE1F88F7E09508959D
:10265000E89409C097FB3EF490958095709561953C
:102660007F4F8F4F9F4F9923A9F0F92F96E9BB27F2
:102670009395F695879577956795B795F111F8CF6E
:10268000FAF4BB0F11F460FF1BC06F5F7F4F8F4FD9
:102690009F4F16C0882311F096E911C0772321F0CF
:1026A0009EE8872F762F05C0662371F096E8862F67
:1026B00070E060E02AF09A95660F771F881FDAF7BE
:1026C000880F9695879597F9089597F99F6780E801
:1026D00070E060E008959FEF80EC089500240A9474
:1026E0001616170618060906089500240A941216ED
:1026F0001306140605060895092E0394000C11F420
:10270000882352F0BB0F40F4BF2B11F460FF04C0CC
:102710006F5F7F4F8F4F9F4F089557FD9058440F25
:10272000551F59F05F3F71F04795880F97FB991F30
:1027300061F09F3F79F087950895121613061406ED
:10274000551FF2CF4695F1DF08C01616170618067A
:10275000991FF1CF86957105610508940895E89455
:10276000BB2766277727CB0197F908950E94BB13F3
:1027700008F48FEF0895990F0008550FAA0BE0E8B1
:10278000FEEF16161706E807F907C0F01216130633
:10279000E407F50798F0621B730B840B950B39F473
:1027A0000A2661F0232B242B252B21F408950A26D9
:1027B00009F4A140A6958FEF811D811D0895052E76
:1027C00097FB1EF400940E94F61357FD07D00E9459
:1027D000FE1307FC03D04EF40C94F613509540956D
:1027E000309521953F4F4F4F5F4F089590958095BD
:1027F000709561957F4F8F4F9F4F0895A1E21A2EDC
:10280000AA1BBB1BFD010DC0AA1FBB1FEE1FFF1F94
:10281000A217B307E407F50720F0A21BB30BE40BE4
:10282000F50B661F771F881F991F1A9469F760952B
:102830007095809590959B01AC01BD01CF010895E5
:10284000DC01FB018C9190819D9381934150510952
:1028500014161506BCF30895A0E0B0E0E2E3F4E13D
:102860000C94B819D82FC92F6B018A017901F9018D
:102870000995B80197FF0FC0C601F701099597FFA9
:1028800002C0C60119C0B8018D2F9C2FF701099510
:1028900097FD0EC00FC0C601F7010995181619065D
:1028A00084F3B8018D2F9C2FF701099597FD02C085
:1028B000C80102C08D2F9C2FCDB7DEB7E8E00C9485
:1028C000D419AAE0B0E0E7E6F4E10C94AE198C016B
:1028D0007B015A87498769015195419551095E836A
:1028E0004D8329853A85200F311F3A83298337E0AC
:1028F000E316F10478F589809A8049855A85E49E2B
:10290000C001E59E900DF49E900D11247801E80E13
:10291000F91E8E149F0408F077C1340106151705BF
:10292000A0F4530169857A85A61AB70AB301C501D7
:10293000F60109951816190644F449855A85B5011A
:10294000C3010E9420143501E9CF29853A85820E02
:10295000931EDFCFC7019695879549855A85849F39
:102960005001859FB00C949FB00C1124A00EB11E95
:10297000B701615071097C836B8377E0E716F1043E
:1029800009F44CC08B819C81849F3001859F700C21
:10299000949F700C1124600E711E99E2E916F104E7
:1029A000A8F1C70123E0969587952A95E1F7849FC2
:1029B0004001859F900C949F900C11241401220CCF
:1029C000331CA801420D531DB801680D791D9601F5
:1029D000C8010E942C142C01A501480D591D919489
:1029E000819491089601B501C501880D991D0E9439
:1029F0002C145C01B301680D791D9601A301C3017C
:102A0000821993090E942C143C0101C028019601EF
:102A1000A301B501C2010E942C145C0149855A85AD
:102A2000B501C8010E94201489809A804B815C8185
:102A300069857A85469F9001479F300D569F300DDE
:102A400011243A8329833901600E711E2301540138
:102A5000140120E030E06A147B0408F43FC0B801A0
:102A6000C5012F833887F60109952F8138851816FF
:102A70001906A4F1892B61F449855A85B501C10174
:102A80000E94201489859A85280E391E21E030E0A5
:102A9000E985FA85AE0EBF1EDECFB801C3012F83D4
:102AA0003887F6010995A30169857A85461B570B7E
:102AB0005C834B832F81388597FD14C0892B61F48B
:102AC00049855A85B201C3010E94201429853A859F
:102AD000421A530A21E030E06B807C806A147B0448
:102AE000E0F60FC049855A85B301C5010E94201444
:102AF00049855A85A40EB51E6B807C8021E030E0AC
:102B0000AACF232B69F5E985FA85EE9EC001EF9ED9
:102B1000900DFE9E900D11247801E80EF91E8E1482
:102B20009F0408F071C0340106151705A0F4530185
:102B300029853A85A21AB30AB301C501F6010995A0
:102B40001816190644F449855A85B501C3010E9437
:102B500020143501E9CF29853A85820E931EDFCFF7
:102B600089819A814D815E81841B950BB801680F24
:102B7000791F7A8369837501E218F308A101401B6C
:102B8000510BE416F5060CF4A7011416150634F4DF
:102B9000B501641B750BC8010E9420144201861800
:102BA000970849815A814419550989859A85481B96
:102BB000590B8416950608F4A401141615063CF466
:102BC00069817A81641B750BC5010E942014E98517
:102BD000FA85EE15FF0548F4C701BF010E94871969
:102BE0009601AF01C8010E94611429853A85281514
:102BF000390550F409811A8108191909C401B9016C
:102C00000E9487197B016DCE2A96E2E10C94CA19C5
:102C10008F929F92AF92BF92CF92DF92EF92FF92EC
:102C2000CF93DF93EC01688179818A819B81611563
:102C300071058105910521F464E279ED8BE597E05A
:102C40002DE133EF41E050E00E94DF1349015A01CA
:102C50009B01AC01A7EAB1E40E949B196B017C01C6
:102C6000ACEEB4EFA50194010E94A919DC01CB01DF
:102C70008C0D9D1DAE1DBF1DB7FF03C00197A1099F
:102C8000B04888839983AA83BB83BC01CD019F7719
:102C9000DF91CF91FF90EF90DF90CF90BF90AF90FA
:102CA0009F908F9008950E940816089580E091E00B
:102CB0000E940816089560930001709301018093AB
:102CC000020190930301089585FD0C94AC18806275
:102CD00091110C94AC1881568A51D8F70895CF936E
:102CE000DF93EC012B8120FF33C026FF0AC02F7B2E
:102CF0002B838E819F8101969F838E838A8190E0B2
:102D000029C022FF0FC0E881F9818081082E000CC4
:102D1000990B009719F420622B831AC03196F9831E
:102D2000E8830EC0EA85FB85099597FF09C02B81D2
:102D3000019611F080E201C080E1822B8B8308C0F4
:102D40002E813F812F5F3F4F3F832E83992702C003
:102D50008FEF9FEFDF91CF910895A0E0B0E0E3EB1C
:102D6000F6E10C94BC19AE01495F5F4FDA016D9139
:102D70007D91AD0103E913E0F80182819381DC01CB
:102D800013962C911397286013962C930E94DA16B1
:102D9000D8011296ED91FC9113972381277F23830D
:102DA000E4E00C94D81960919503709196030E9409
:102DB000C5180895ACE0B0E0E0EEF6E10C94AE1971
:102DC0007C016B018A01FC0117821682838181FFDD
:102DD000BDC1CE0101964C01F7019381F60193FD2F
:102DE000859193FF81916F01882309F4ABC18532EE
:102DF00039F493FD859193FF81916F01853229F418
:102E0000B70190E00E94C518E7CF512C312C20E08B
:102E10002032A0F48B3269F030F4803259F08332E2
:102E200069F420612CC08D3239F0803339F421608F
:102E300026C02260246023C0286021C027FD27C04F
:102E400030ED380F3A3078F426FF06C0FAE05F9E86
:102E5000300D1124532E13C08AE0389E300D1124FA
:102E6000332E20620CC08E3221F426FD6BC120640B
:102E700006C08C3611F4206802C0883641F4F60191
:102E800093FD859193FF81916F018111C1CF982F9F
:102E90009F7D9554933028F40C5F1F4FFFE3F98317
:102EA0000DC0833631F0833771F0833509F05BC094
:102EB00022C0F801808189830E5F1F4F4424439410
:102EC000512C540115C03801F2E06F0E711CF8014D
:102ED000A080B18026FF03C0652D70E002C06FEFB7
:102EE0007FEFC5012C870E94BA182C0183012C8525
:102EF0002F77222E17C03801F2E06F0E711CF801F7
:102F0000A080B18026FF03C0652D70E002C06FEF86
:102F10007FEFC5012C870E94AF182C012C852068FB
:102F2000222E830123FC1BC0832D90E048165906F6
:102F3000B0F4B70180E290E00E94C5183A94F4CF53
:102F4000F50127FC859127FE81915F01B70190E093
:102F50000E94C51831103A94F1E04F1A51084114FB
:102F6000510471F7E5C0843611F0893639F5F8015E
:102F700027FF07C060817181828193810C5F1F4FA1
:102F800008C060817181072E000C880B990B0E5FC1
:102F90001F4F2F76722E97FF09C0909580957095E0
:102FA00061957F4F8F4F9F4F2068722E2AE030E04F
:102FB000A4010E94FD18A82EA81844C0853729F442
:102FC0002F7EB22E2AE030E025C0F22FF97FBF2EEF
:102FD0008F36C1F018F4883579F0B4C0803719F015
:102FE000883721F0AFC02F2F2061B22EB4FE0DC064
:102FF0008B2D8460B82E09C024FF0AC09F2F9660D5
:10300000B92E06C028E030E005C020E130E002C063
:1030100020E132E0F801B7FE07C060817181828152
:1030200093810C5F1F4F06C06081718180E090E04A
:103030000E5F1F4FA4010E94FD18A82EA818FB2D9B
:10304000FF777F2E76FE0BC0372D3E7FA51450F400
:1030500074FE0AC072FC08C0372D3E7E05C0BA2C33
:10306000372D03C0BA2C01C0B52C34FF0DC0FE01B2
:10307000EA0DF11D8081803311F4397E09C032FFE1
:1030800006C0B394B39404C0832F867809F0B39438
:1030900033FD13C030FF06C05A2CB31418F4530C80
:1030A0005B18B32CB31468F4B70180E290E03C875E
:1030B0000E94C518B3943C85F5CFB31410F43B18A7
:1030C00001C0312C34FF12C0B70180E390E03C878F
:1030D0000E94C5183C8532FF17C031FD03C088E748
:1030E00090E002C088E590E0B7010CC0832F86789D
:1030F00059F031FF02C08BE201C080E237FD8DE262
:10310000B70190E00E94C518A51438F4B70180E318
:1031100090E00E94C5185A94F7CFAA94F401EA0DE2
:10312000F11D8081B70190E00E94C518A110F5CF74
:10313000332009F451CEB70180E290E00E94C51817
:103140003A94F6CFF7018681978102C08FEF9FEF07
:103150002C96E2E10C94CA19992788270895FC015E
:103160000590615070400110D8F7809590958E0FB2
:103170009F1F0895FC016150704001900110D8F725
:10318000809590958E0F9F1F08950F931F93CF9357
:10319000DF93FB01238121FD03C08FEF9FEF28C048
:1031A00022FF16C04681578124813581421753077B
:1031B00044F4A081B1819D012F5F3F4F3183208373
:1031C0008C93268137812F5F3F4F3783268310C032
:1031D000EB01092F182F0084F185E02D0995892B2B
:1031E000E1F68E819F8101969F838E83812F902FA0
:1031F000DF91CF911F910F910895FA01AA272830EE
:1032000051F1203181F1E8946F936E7F6E5F7F4FB3
:103210008F4F9F4FAF4FB1E03ED0B4E03CD0670F2F
:10322000781F891F9A1FA11D680F791F8A1F911D82
:10323000A11D6A0F711D811D911DA11D20D009F4D2
:1032400068943F912AE0269F11243019305D319314
:10325000DEF6CF010895462F4770405D4193B3E0FD
:103260000FD0C9F7F6CF462F4F70405D4A3318F0A4
:10327000495D31FD4052419302D0A9F7EACFB4E055
:10328000A6959795879577956795BA95C9F700970D
:103290006105710508959B01AC010A2E06945795AE
:1032A000479537952795BA95C9F7620F731F841F05
:1032B000951FA01D0895F999FECF92BD81BDF89A82
:1032C000992780B50895A8E1B0E042E050E00C9461
:1032D0007919262FF999FECF1FBA92BD81BD20BD65
:1032E0000FB6F894FA9AF99A0FBE01960895DC0188
:1032F000CB01FC01F999FECF06C0F2BDE1BDF89A01
:10330000319600B40D9241505040B8F70895AA1B71
:10331000BB1B51E107C0AA1FBB1FA617B70710F0C0
:10332000A61BB70B881F991F5A95A9F780959095F2
:10333000BC01CD0108950E94E519A59F900DB49F91
:10334000900DA49F800D911D11240895B7FF0C943A
:103350009B190E949B19821B930B08952F923F92F9
:103360004F925F926F927F928F929F92AF92BF9295
:10337000CF92DF92EF92FF920F931F93CF93DF9341
:10338000CDB7DEB7CA1BDB0B0FB6F894DEBF0FBE9E
:10339000CDBF09942A88398848885F846E847D84EB
:1033A0008C849B84AA84B984C884DF80EE80FD80ED
:1033B0000C811B81AA81B981CE0FD11D0FB6F89463
:1033C000DEBF0FBECDBFED010895A29FB001B39F38
:1033D000C001A39F700D811D1124911DB29F700D1E
:0C33E000811D1124911D0895F894FFCF69
:1033EC0001000000030101070402020301070103AD
:1033FC000107020203020207030307010101010195
:10340C00000000F401F4010F0000000300000000B4
:10341C00AA0FE20F00003F065B4F666D7D077F6FC2
:10342C000F01011E011E011E011E013C03011B01A7
:10343C001A011B011A01F0020218011801180118D7
:10344C0001FF02031601130111010E011502030CF9
:10345C0001090107010401343339363039313400A4
:00000001FF
